:040000006DEF00F0B0
:0E0008004782FACF07F0FBCF08F0A9ED08F011
:100018004780D8CFB8F0E8CFB9F0E0CFBAF0FACF40
:10002800BBF0FBCFBCF0E9CFBDF0EACFBEF0E1CF2B
:10003800BFF0E2CFC0F0D9CFC1F0DACFC2F0F3CF32
:10004800C3F0F4CFC4F0F6CFC5F0F7CFC6F0F8CFC1
:10005800C7F0F5CFC8F03CEC09F070EC09F0E3EC20
:1000680009F0C8EC09F09AEC0AF0B7EC0AF070EC69
:100078000AF059EC0AF042EC0AF02BEC0AF014EC06
:100088000AF0FDEC09F0A7EC07F0C8C0F5FFC7C0FF
:10009800F8FFC6C0F7FFC5C0F6FFC4C0F4FFC3C071
:1000A800F3FFC2C0DAFFC1C0D9FFC0C0E2FFBFC0C2
:1000B800E1FFBEC0EAFFBDC0E9FFBCC0FBFFBBC09B
:1000C800FAFFBAC0E0FFB9C0E8FFB8C0D8FF479050
:1000D8001000A1EF09F01D6EF29E000E2C6E0A0EA4
:1000E8002C6401D012002C50080D600EF324D96E38
:1000F800000EF420DA6E3B50DE18D8A4A5D12C509F
:10010800080D010EF326000EF422600EF324D96EBA
:10011800000EF420DA6E1D50DE18D8A495D12CC03C
:1001280032F0640E2C6E3B50150D130EF326000EA4
:10013800F422000EF324D96E010EF420DA6E32C0D8
:10014800DFFF3250080D030EF326000EF422600E76
:10015800F324D96E000EF420DA6E3B50150D120E02
:10016800F326000EF422000EF324E16E010EF420B3
:10017800E26EDFCFE7FF3250080D020EF326000EC5
:10018800F422600EF324D96E000EF420DA6EDF50EC
:10019800D8A42CD03B50150D100EF326000EF422D7
:1001A800000EF324D96E010EF420DA6E1DC0DFFFB5
:1001B8003B50150D0F0EF326000EF422000EF3240B
:1001C800D96E010EF420DA6E020EDF6E3B50150D6B
:1001D800030EF326000EF422000EF324D96E010E4E
:1001E800F420DA6E010EDF6EFBEC08F03B50150DC3
:1001F800130EF326000EF422000EF324D96E010E1E
:10020800F420DA6EDF50186E1850080D020EF3262F
:10021800000EF422600EF324D96E000EF420DA6E7C
:10022800000EDF6E3B50150D120EF326000EF42261
:10023800000EF324D96E010EF420DA6E3B50150D32
:10024800130EF326000EF422000EF324E16E010EC5
:10025800F420E26EE750186E1850080D030EF326CE
:10026800000EF422600EF324E16E000EF420E26E1C
:10027800DFCFE7FF3B50150D130EF326000EF422D7
:10028800000EF324D96E010EF420DA6EDF502C6EC6
:100298002C50080D030EF326000EF422600EF324F2
:1002A800D96E000EF420DA6EDF50186E18C019F0FF
:1002B8001A6A1B6A1C6A16C0D9FF17C0DAFF19C070
:1002C800DEFF1AC0DEFF1BC0DEFF1CC0DEFF2C50A5
:1002D800080D010EF326000EF422600EF324D96EE9
:1002E800000EF420DA6EDF50186E1850150D110E3E
:1002F800F326000EF422000EF324D96E010EF4202A
:10030800DA6E3B50DE18D8A49FD02C50080D010E91
:10031800F326000EF422600EF324D96E000EF420AA
:10032800DA6EDF50186E1850150D030EF326000E06
:10033800F422000EF324D96E010EF420DA6EDE04E6
:10034800D8A482D02C50080D010EF326000EF422FA
:10035800600EF324D96E000EF420DA6EDF50186EAA
:100368001850150D0F0EF326000EF422000EF3247C
:10037800D96E010EF420DA6EDE04D8A465D02C50B4
:10038800080D010EF326000EF422600EF324D96E38
:10039800000EF420DA6EDF50186E1850150D030E9B
:1003A800F326000EF422000EF324D96E010EF42079
:1003B800DA6E020EDF6E2C50080D010EF326000EC9
:1003C800F422600EF324D96E000EF420DA6EDF50AA
:1003D800186E1850150D0F0EF326000EF422000E9D
:1003E800F324D96E010EF420DA6E000EDF6E3B5056
:1003F800150D080EF326000EF422000EF324D96E14
:10040800010EF420DA6EFFCFDFFF3B50150D070E0B
:10041800F326000EF422000EF324D96E010EF42008
:10042800DA6EFECFDFFF3B50150D060EF326000EE9
:10043800F422000EF324D96E010EF420DA6EFDCFFB
:10044800DFFFFC06BAEC03F02C2A49D61A6EF29E9E
:100458000A0E336E000E2D6E0A0E2D6401D079D06F
:100468002D50080D010EF326000EF422600EF32421
:10047800D96E000EF420DA6E3B50DE18D8A467D08F
:100488002D50080D600EF324D96E000EF420DA6E9C
:100498001650DE18D8A45BD02DC033F0640E2D6E34
:1004A8003B50150D140EF326000EF422000EF32413
:1004B800D96E010EF420DA6E33C0DFFF3B50150D04
:1004C800120EF326000EF422000EF324D96E010E4C
:1004D800F420DA6E1AC0DFFF3350080D020EF3263F
:1004E800000EF422600EF324D96E000EF420DA6EAA
:1004F800DE04D8A42CD03B50150D110EF326000EA7
:10050800F422000EF324D96E010EF420DA6E16C020
:10051800DFFF3B50150D120EF326000EF422000EDD
:10052800F324D96E010EF420DA6E1AC0DFFF3B50B7
:10053800150D0F0EF326000EF422000EF324D96ECB
:10054800010EF420DA6E010EDF6EFBEC08F02D2AA6
:1005580083D73B50150D120EF326000EF422000E21
:10056800F324D96E010EF420DA6E3B50150D140EEB
:10057800F326000EF422000EF324E16E010EF4209F
:10058800E26EE750176E1750080D030EF326000EA3
:10059800F422600EF324E16E000EF420E26EDFCF49
:1005A800E7FF3B50150D140EF326000EF422000E43
:1005B800F324D96E010EF420DA6EDF50176E17504F
:1005C800080D020EF326000EF422600EF324D96EF5
:1005D800000EF420DA6E010EDF6E3B50150D140E7E
:1005E800F326000EF422000EF324D96E010EF42037
:1005F800DA6EDF50176E1750080D600EF324D96EAF
:10060800000EF420DA6EDF50186E1850150D030E28
:10061800F326000EF422000EF324D96E010EF42006
:10062800DA6EDE04D8A412003B50150D140EF32622
:10063800000EF422000EF324D96E010EF420DA6EB7
:10064800DF50176E1750080D600EF324D96E000E98
:10065800F420DA6EDF50186E1850150D0F0EF326C1
:10066800000EF422000EF324D96E010EF420DA6E87
:10067800020EDE18D8A412003B50150D140EF326F6
:10068800000EF422000EF324D96E010EF420DA6E67
:10069800DF50176E1750080D600EF324D96E000E48
:1006A800F420DA6EDF50186E1850150D030EF3267D
:1006B800000EF422000EF324D96E010EF420DA6E37
:1006C800020EDF6E3B50150D140EF326000EF422B9
:1006D800000EF324D96E010EF420DA6EDF50176E87
:1006E8001750080D600EF324D96E000EF420DA6E50
:1006F800DF50186E1850150D0F0EF326000EF42259
:10070800000EF324D96E010EF420DA6E000EDF6EAF
:100718003B50150D080EF326000EF422000EF324AC
:10072800D96E010EF420DA6EFFCFDFFF3B50150DB6
:10073800070EF326000EF422000EF324D96E010EE4
:10074800F420DA6EFECFDFFF3B50150D060EF326C0
:10075800000EF422000EF324D96E010EF420DA6E96
:10076800FDCFDFFFFC06BAEC03F01200F29E0A0E82
:100778002E6E42684604D8A41200000E276E0A0E98
:10078800276401D052D02750150D050EF326000E10
:10079800F422000EF324D96E010EF420DA6E4250D2
:1007A800DE5CD8B040D02750150D030EF326000E9E
:1007B800F422000EF324D96E010EF420DA6E020E34
:1007C800DE18D8B420D02750150D030EF326000EDE
:1007D800F422000EF324D96E010EF420DA6E040E12
:1007E800DE18D8B410D02750150D030EF326000ECE
:1007F800F422000EF324D96E010EF420DA6E030EF3
:10080800DE18D8A410D027C02EF02E50150D050ED6
:10081800F326000EF422000EF324D96E010EF42004
:10082800DA6EDF50426E272AAAD72E50150D030E16
:10083800F326000EF422000EF324D96E010EF420E4
:10084800DA6E040EDF6E2EC03BF02E50150D070E2B
:10085800F326000EF422000EF324D96E010EF420C4
:10086800DA6EDF50FE6E2E50150D080EF326000EC0
:10087800F422000EF324D96E010EF420DA6EDF5054
:10088800FF6E2E50150D060EF326000EF422000EF4
:10089800F324D96E010EF420DA6EDF50FD6EF28E6D
:1008A8002E50150D030EF326000EF422000EF3242D
:1008B800D96E010EF420DA6E030EDE18D8A41200E9
:1008C8002E50150D090EF326000EF422000EF32407
:1008D800D96E010EF420DA6EDF50D86E2E50150D49
:1008E8000B0EF326000EF422000EF324D96E010E2F
:1008F800F420DA6EDF50E06E2E50150D0A0EF32646
:10090800000EF422000EF324D96E010EF420DA6EE4
:10091800DF50156E15501200F29E3B50150D080E53
:10092800F326000EF422000EF324D96E010EF420F3
:10093800DA6EFFCFDFFF3B50150D070EF326000ED2
:10094800F422000EF324D96E010EF420DA6EFECFE5
:10095800DFFF3B50150D060EF326000EF422000EA5
:10096800F324D96E010EF420DA6EFDCFDFFF1AC032
:1009780037F03750150D040EF326000EF422000E42
:10098800F324D96E010EF420DA6E1AC0DFFF375057
:10099800150D030EF326000EF422000EF324D96E73
:1009A800010EF420DA6E020EDF6E3750150D020EBE
:1009B800F326000EF422000EF324D96E010EF42063
:1009C800DA6E18C0DFFF3750150D010EF326000E42
:1009D800F422000EF324D96E010EF420DA6E17C04B
:1009E800DFFF3750150D000EF324D96E010EF420E9
:1009F800DA6E16C0DFFF3750150D080EF326000E0D
:100A0800F422000EF324D96E010EF420DA6E18C019
:100A1800DFFF3750150D070EF326000EF422000EE7
:100A2800F324D96E010EF420DA6E17C0DFFF3750B9
:100A3800150D060EF326000EF422000EF324D96ECF
:100A4800010EF420DA6E16C0DFFF3750150D050EC3
:100A5800F326000EF422000EF324D96E010EF420C2
:100A6800DA6E1BC0DFFFFC06BAEC03F01200F29E40
:100A78000550150D040EF326000EF422000EF32483
:100A8800D96E010EF420DA6E05C0DFFF0550150D92
:100A9800030EF326000EF422000EF324D96E010E85
:100AA800F420DA6E020EDF6E0550150D020EF326E5
:100AB800000EF422000EF324D96E010EF420DA6E33
:100AC80003C0DFFF0550150D010EF326000EF422BA
:100AD800000EF324D96E010EF420DA6E02C0DFFF97
:100AE8000550150D000EF324D96E010EF420DA6EB0
:100AF80001C0DFFF0550150D080EF326000EF42285
:100B0800000EF324D96E010EF420DA6E03C0DFFF65
:100B18000550150D070EF326000EF422000EF324DF
:100B2800D96E010EF420DA6E02C0DFFF0550150DF4
:100B3800060EF326000EF422000EF324D96E010EE1
:100B4800F420DA6E01C0DFFF0550150D050EF326FF
:100B5800000EF422000EF324D96E010EF420DA6E92
:100B680006C0DFFF740EFD6E070EFE6E000EFF6EF0
:100B78001000120000F0366FD8CF35F0E0CF34F017
:100B88003B50150D0A0EF326000EF422000EF32436
:100B9800D96E010EF420DA6E3AC0DFFF3B50150D16
:100BA800090EF326000EF422000EF324D96E010E6E
:100BB800F420DA6E39C0DFFF3B50150D0B0EF3261B
:100BC800000EF422000EF324D96E010EF420DA6E22
:100BD80038C0DFFF3B50150D030EF326000EF4223C
:100BE800000EF324D96E010EF420DA6E030EDF6EC8
:100BF800FC063B50150D080EF326000EF422000EDD
:100C0800F324D96E010EF420DA6EFFCFDFFF3B50DC
:100C1800150D070EF326000EF422000EF324D96EEC
:100C2800010EF420DA6EFECFDFFF3B50150D060EE5
:100C3800F326000EF422000EF324D96E010EF420E0
:100C4800DA6EFDCFDFFFFC2A1200166EF29E0A0E46
:100C5800316E000E2B6E0A0E2B6401D024D02B505F
:100C6800080D020EF326000EF422600EF324D96E4E
:100C7800000EF420DA6EDF50D8A413D02B50080DE4
:100C8800060EF326000EF422600EF324D96E000E31
:100C9800F420DA6EDF50D8A404D02BC031F0640EF3
:100CA8002B6E2B2AD8D73B50150D110EF326000EAC
:100CB800F422000EF324D96E010EF420DA6E16C069
:100CC800DFFF3150080D600EF324D96E000EF420BA
:100CD800DA6E16C0DFFF3150080D010EF326000E44
:100CE800F422600EF324D96E000EF420DA6E15C0DB
:100CF800DFFF3150080D060EF326000EF422600EB9
:100D0800F324D96E000EF420DA6E010EDF6E1200A5
:100D1800F29E000E276E0A0E276401D048D0275095
:100D2800150D050EF326000EF422000EF324D96EDD
:100D3800010EF420DA6EFF0EDF6E2750150D040E3B
:100D4800F326000EF422000EF324D96E010EF420CF
:100D5800DA6E27C0DFFF2750150D030EF326000EAD
:100D6800F422000EF324D96E010EF420DA6E000E80
:100D7800DF6E2750080D020EF326000EF422600ED7
:100D8800F324D96E000EF420DA6E000EDF6E2750C1
:100D9800080D060EF326000EF422600EF324D96E19
:100DA800000EF420DA6E000EDF6E272AB4D7D35077
:100DB800700ED312D58ED58CD59AD598D596070EA8
:100DC800D512D580D582D584F28AF28CD58E1200C0
:100DD800000E276E0A0E276401D04DD02750150D3E
:100DE8000E0EF326000EF422000EF324D96E010E27
:100DF800F420DA6EDE04D8A43CD02750150D0C0E72
:100E0800F326000EF422000EF324D96E010EF4200E
:100E1800DA6EDE06000EDD5A2750150D0C0EF3268D
:100E2800000EF422000EF324D96E010EF420DA6EBF
:100E3800DE50DE10D8A41DD026062750150D030E4F
:100E4800F326000EF422000EF324D96E010EF420CE
:100E5800DA6E020EDF6E2750150D0E0EF326000E09
:100E6800F422000EF324D96E010EF420DA6E000E7F
:100E7800DF6E272AAFD72650D8B4F29A740EFD6ECB
:100E8800070EFE6E000EFF6E10001200F29E3B5021
:100E9800150D080EF326000EF422000EF324D96E69
:100EA800010EF420DA6EFFCFDFFF3B50150D070E61
:100EB800F326000EF422000EF324D96E010EF4205E
:100EC800DA6EFECFDFFF3B50150D060EF326000E3F
:100ED800F422000EF324D96E010EF420DA6EFDCF51
:100EE800DFFF3B50150D030EF326000EF422000E13
:100EF800F324D96E010EF420DA6E010EDF6E3B503A
:100F0800150D0C0EF326000EF422000EF324D96EF4
:100F1800010EF420DA6E16C0DEFF17C0DDFF3B506D
:100F2800150D0E0EF326000EF422000EF324D96ED2
:100F3800010EF420DA6E010EDF6E262AF28AFC0614
:100F4800BAEC03F01200E00E166E140E176E000EC7
:100F5800186E000E196E010E1A6E050E1B6E90ECBF
:100F680004F0B20E166E140E176E000E186E000EF8
:100F7800196E020E1A6E050E1B6E90EC04F0840EAC
:100F8800166E140E176E000E186E000E196E030EF4
:100F98001A6E050E1B6E90EC04F0560E166E140EAB
:100FA800176E000E186E000E196E040E1A6E050EDE
:100FB8001B6E90EC04F0280E166E140E176E000EC1
:100FC800186E000E196E050E1A6E050E1B6E90EC4B
:100FD80004F0FA0E166E130E176E000E186E000E41
:100FE800196E060E1A6E050E1B6E90EC04F000F0DA
:100FF80087EC0AF01200166EF29E0A0E306E000E92
:101008002A6E0A0E2A6401D01FD02A50080D600EDD
:10101800F324D96E000EF420DA6E1650DE18D8A428
:1010280011D02A50080D010EF326000EF422600E8E
:10103800F324D96E000EF420DA6E3B50DE18D8B4D3
:101048002AC030F02A2ADDD73050080D040EF326C6
:10105800000EF422600EF324D96E000EF420DA6E2E
:10106800010EDF6E3050080D050EF326000EF42237
:10107800600EF324D96E000EF420DA6EDE04D8A4D4
:1010880012003050080D060EF326000EF422600EF2
:10109800F324D96E000EF420DA6E000EDF6E120013
:1010A800166EF29E0A0E2F6E000E296E0A0E296425
:1010B80001D01FD02950080D010EF326000EF4228E
:1010C800600EF324D96E000EF420DA6E1650DE1886
:1010D800D8A40DD02950080D600EF324D96E000E47
:1010E800F420DA6E3B50DE18D8B429C02FF0292A34
:1010F800DDD72F50080D050EF326000EF422600EE2
:10110800F324D96E000EF420DA6E010EDF6E2F5034
:10111800080D040EF326000EF422600EF324D96E97
:10112800000EF420DA6EDE04D8A412002F50080D49
:10113800060EF326000EF422600EF324D96E000E7C
:10114800F420DA6E000EDF6E12000600E9CF09F017
:10115800EACF0AF0E1CF0BF0E2CF0CF0D9CF0DF0D7
:10116800DACF0EF0F3CF0FF0F4CF10F0F6CF11F086
:10117800F7CF12F0F8CF13F0F5CF14F0BEEC05F06E
:10118800F2B8F2A210D0F29200F0780E016E120EB0
:10119800026E000E036E000E046E000E056E010E48
:1011A800066E3BEC05F0F2BAF2A403D0F294ECEC34
:1011B80006F014C0F5FF13C0F8FF12C0F7FF11C006
:1011C800F6FF10C0F4FF0FC0F3FF0EC0DAFF0DC02A
:1011D800D9FF0CC0E2FF0BC0E1FF0AC0EAFF09C05B
:1011E800E9FF08C0FBFF07C0FAFF47921100F29E13
:1011F8003B50150D030EF326000EF422000EF324C7
:10120800D96E010EF420DA6E010EDF6E3B50150D1B
:10121800080EF326000EF422000EF324D96E010EF8
:10122800F420DA6EFFCFDFFF3B50150D070EF326D3
:10123800000EF422000EF324D96E010EF420DA6EAB
:10124800FECFDFFF3B50150D060EF326000EF422ED
:10125800000EF324D96E010EF420DA6EFDCFDFFF05
:10126800FC2A740EFD6E070EFE6E000EFF6E120055
:1012780000F000F000F0E00E166E120E176E000E71
:10128800186E000E196E010E1A6E0A0E1B6E90EC87
:1012980004F0000E156E010E29EC06F0010E166E14
:1012A800010E2AEC02F0010E166E020E2AEC02F074
:1012B80022C0D9FF23C0DAFFDECF1EF0DECF1FF039
:1012C800DECF20F0DECF21F0010E54EC08F000F064
:1012D80000F087EC0AF0120000F000F022C016F0CF
:1012E80023C017F0000E6FEC00F022C0D9FF23C016
:1012F800DAFFDECF1EF0DECF1FF0DECF20F0DECF2C
:1013080021F000F000F024C016F025C017F0000E00
:101318006FEC00F024C0D9FF25C0DAFFDECF1EF045
:10132800DECF1FF0DECF20F0DECF21F000F0000E80
:10133800FFEC07F087EC0AF0120001EE00F0E70E70
:10134800EE6AE806FDE100EE60F0580EEE6AE80687
:10135800FDE100EE1EF01A0EEE6AE806FDE1500E01
:10136800F66E150EF76E000EF86E00EE38F010EE01
:101378000FF00900F5CFEEFFE550E150FAE1479094
:1013880047920001B0EF0AF000F000F000F0340ED0
:10139800166E150E176E000E186E000E196E040EDE
:1013A8001A6E000E1B6E90EC04F0000E176E010E04
:1013B800166E4AEC07F000F087EC0AF0120000F015
:1013C80000F022C016F023C017F0000E6FEC00F0FA
:1013D80022C0D9FF23C0DAFFDECF1EF0DECF1FF018
:1013E800DECF20F0DECF21F000F000F087EC0AF02D
:1013F80012008A8A41C016F0176A4AEC07F08A9AE6
:101408004150186E196A181E191E184A192A0A0E10
:101418001824166E000E1920176E4AEC07F0E9D74B
:101428008A8840C016F0176A4AEC07F08A9840503C
:10143800186E196A181E191E184A192A0A0E182435
:10144800166E000E1920176E4AEC07F0E9D78A8647
:101458003FC016F0176A4AEC07F08A963F50186E9C
:10146800196A181E191E184A192A0A0E1824166E07
:10147800000E1920176E4AEC07F0E9D78A843EC09F
:1014880016F0176A4AEC07F08A943E50186E196AEB
:10149800181E191E184A192A0A0E1824166E000E4C
:1014A8001920176E4AEC07F0E9D78A823DC016F07A
:1014B800176A4AEC07F08A923D50186E196A181E8E
:1014C800191E184A192A0A0E1824166E000E192019
:1014D800176E4AEC07F0E9D78A803CC016F0176A05
:1014E8004AEC07F08A903C50186E196A181E191EAB
:1014F800184A192A0A0E1824166E000E1920176E9B
:101508004AEC07F0E9D7F29E3B50150D030EF3267F
:10151800000EF422000EF324D96E010EF420DA6EC8
:10152800000EDF6EFC06BAEC03F0120000F000F0CB
:1015380000F000F0000E176E050E166E4AEC07F06C
:1015480000F087EC0AF01200FFFFFF0A0102030413
:071558000506FFFFFFFF0184
:101560008CEC06F0F28E120EF21200F0FED7000E96
:081570008A6E000E936E12005A
:020000040020DA
:08000000FFFFFFFFFFFFFFFF00
:020000040030CA
:0E0000001808181EFF8180FF0000000000009D
:00000001FF
