:040000006EEF00F0AF
:0E0008004682FACFBCF0FBCFBDF03DED08F014
:100018004680D8CF07F0E8CF08F0E0CF09F0FACF54
:100028000AF0FBCF0BF0E9CF0CF0EACF0DF0E1CFEF
:100038000EF0E2CF0FF0D9CF10F0DACF11F0F3CFF6
:1000480012F0F4CF13F0F6CF14F0F7CF15F0F8CF85
:1000580016F0F5CF17F051EC06F0F0B6F0A010D07E
:10006800F090F096D60E016E110E026E000E036E21
:10007800000E046E010E056E010E066E65EC05F0AD
:10008800F0B8F0A203D0F092F09800F017C0F5FF96
:1000980016C0F8FF15C0F7FF14C0F6FF13C0F4FF31
:1000A80012C0F3FF11C0DAFF10C0D9FF0FC0E2FF82
:1000B8000EC0E1FF0DC0EAFF0CC0E9FF0BC0FBFF5B
:1000C8000AC0FAFF09C0E0FF08C0E8FF07C0D8FF70
:1000D8004690100013EF09F00001CF6FF29E000E5A
:1000E800276E0A0E276401D012002750080D600EF3
:1000F800F324D96E000EF420DA6E3A50DE18D8A434
:10010800B6D12750080D010EF326000EF422600E1A
:10011800F324D96E000EF420DA6E0001CF51DE18F8
:10012800D8A4A5D127C02DF0640E276E3A50150D1E
:10013800130EF326000EF422000EF324D96E010EDE
:10014800F420DA6E2DC0DFFF2D50080D030EF326C4
:10015800000EF422600EF324D96E000EF420DA6E3D
:100168003A50150D120EF326000EF422000EF32459
:10017800E16E010EF420E26EDFCFE7FF2D50080D8F
:10018800020EF326000EF422600EF324D96E000E40
:10019800F420DA6EDF50D8A42CD03A50150D100E8A
:1001A800F326000EF422000EF324D96E010EF4207B
:1001B800DA6ECFC0DFFF3A50150D0F0EF326000E92
:1001C800F422000EF324D96E010EF420DA6E020E2A
:1001D800DF6E3A50150D030EF326000EF422000EC2
:1001E800F324D96E010EF420DA6E010EDF6E80EC76
:1001F80008F03A50150D130EF326000EF422000EE7
:10020800F324D96E010EF420DA6EDF500001CA6FB4
:100218000001CA51080D020EF326000EF422600EEA
:10022800F324D96E000EF420DA6E000EDF6E3A5019
:10023800150D130EF326000EF422000EF324D96ECA
:10024800010EF420DA6EDF500001CA6F0001CA51B6
:10025800080D030EF326000EF422600EF324D96E67
:10026800000EF420DA6E3A50150D120EF326000E29
:10027800F422000EF324E16E010EF420E26EDFCFCB
:10028800E7FF3A50150D130EF326000EF422000E68
:10029800F324D96E010EF420DA6EDF50276E275052
:1002A800080D030EF326000EF422600EF324D96E17
:1002B800000EF420DA6EDF500001CA6FCAC0CBF01E
:1002C8000001CC6BCD6BCE6B1BC0D9FF1CC0DAFF15
:1002D800CBC0DEFFCCC0DEFFCDC0DEFFCEC0DEFF70
:1002E8002750080D010EF326000EF422600EF324A9
:1002F800D96E000EF420DA6EDF500001CA6F0001DB
:10030800CA51150D110EF326000EF422000EF32427
:10031800D96E010EF420DA6E3A50DE18D8A4A7D0B0
:100328002750080D010EF326000EF422600EF32468
:10033800D96E000EF420DA6EDF500001CA6F00019A
:10034800CA51150D030EF326000EF422000EF324F5
:10035800D96E010EF420DA6EDE04D8A488D02750B6
:10036800080D010EF326000EF422600EF324D96E58
:10037800000EF420DA6EDF500001CA6F0001CA5186
:10038800150D0F0EF326000EF422000EF324D96E7D
:10039800010EF420DA6EDE04D8A469D02750080DC7
:1003A800010EF326000EF422600EF324D96E000E1F
:1003B800F420DA6EDF500001CA6F0001CA51150D32
:1003C800030EF326000EF422000EF324D96E010E5C
:1003D800F420DA6E020EDF6E2750080D010EF326A8
:1003E800000EF422600EF324D96E000EF420DA6EAB
:1003F800DF500001CA6F0001CA51150D0F0EF32618
:10040800000EF422000EF324D96E010EF420DA6EE9
:10041800000EDF6E3A50150D080EF326000EF4227A
:10042800000EF324D96E010EF420DA6EFFCFDFFF41
:100438003A50150D070EF326000EF422000EF32491
:10044800D96E010EF420DA6EFECFDFFF3A50150D9B
:10045800060EF326000EF422000EF324D96E010EC8
:10046800F420DA6EFDCFDFFFFC06E1EC03F0272A6B
:1004780038D61C6EF29E0A0E2E6E000E286E0A0EDC
:10048800286401D079D02850080D010EF326000EFB
:10049800F422600EF324D96E000EF420DA6E3A507E
:1004A800DE18D8A467D02850080D600EF324D96E42
:1004B800000EF420DA6E1B50DE18D8A45BD028C0DA
:1004C8002EF0640E286E3A50150D140EF326000E09
:1004D800F422000EF324D96E010EF420DA6E2EC039
:1004E800DFFF3A50150D120EF326000EF422000E0F
:1004F800F324D96E010EF420DA6E1CC0DFFF2E50F3
:10050800080D020EF326000EF422600EF324D96EB5
:10051800000EF420DA6EDE04D8A42CD03A50150D63
:10052800110EF326000EF422000EF324D96E010EEC
:10053800F420DA6E1BC0DFFF3A50150D120EF326B9
:10054800000EF422000EF324D96E010EF420DA6EA8
:100558001CC0DFFF3A50150D0F0EF326000EF422D3
:10056800000EF324D96E010EF420DA6E010EDF6E50
:1005780080EC08F0282A83D73A50150D120EF3267E
:10058800000EF422000EF324D96E010EF420DA6E68
:100598003A50150D140EF326000EF422000EF32423
:1005A800E16E010EF420E26EE7500001CA6F00010F
:1005B800CA51080D030EF326000EF422600EF32430
:1005C800E16E000EF420E26EDFCFE7FF3A50150D22
:1005D800140EF326000EF422000EF324D96E010E39
:1005E800F420DA6EDF500001CA6F0001CA51080D0D
:1005F800020EF326000EF422600EF324D96E000ECC
:10060800F420DA6E010EDF6E3A50150D140EF32643
:10061800000EF422000EF324D96E010EF420DA6ED7
:10062800DF500001CA6F0001CA51080D600EF324A3
:10063800D96E000EF420DA6EDF500001CB6F000196
:10064800CB51150D030EF326000EF422000EF324F1
:10065800D96E010EF420DA6EDE04D8A412003A50E6
:10066800150D140EF326000EF422000EF324D96E95
:10067800010EF420DA6EDF500001CA6F0001CA5182
:10068800080D600EF324D96E000EF420DA6EDF50E8
:100698000001CB6F0001CB51150D0F0EF326000E94
:1006A800F422000EF324D96E010EF420DA6E020E45
:1006B800DE18D8A412003A50150D140EF326000EB9
:1006C800F422000EF324D96E010EF420DA6EDF5006
:1006D8000001CA6F0001CA51080D600EF324D96EDB
:1006E800000EF420DA6EDF500001CB6F0001CB5111
:1006F800150D030EF326000EF422000EF324D96E16
:10070800010EF420DA6E020EDF6E3A50150D140E4B
:10071800F326000EF422000EF324D96E010EF42005
:10072800DA6EDF500001CA6F0001CA51080D600E71
:10073800F324D96E000EF420DA6EDF500001CB6F7F
:100748000001CB51150D0F0EF326000EF422000EFA
:10075800F324D96E010EF420DA6E000EDF6E3A50E3
:10076800150D080EF326000EF422000EF324D96EA0
:10077800010EF420DA6EFFCFDFFF3A50150D070E99
:10078800F326000EF422000EF324D96E010EF42095
:10079800DA6EFECFDFFF3A50150D060EF326000E77
:1007A800F422000EF324D96E010EF420DA6EFDCF88
:1007B800DFFFFC06E1EC03F01200F29CF29E0A0E49
:1007C800296E41684504D8A41200000E226E0A0E54
:1007D800226401D052D02250150D050EF326000ECA
:1007E800F422000EF324D96E010EF420DA6E415083
:1007F800DE5CD8B040D02250150D030EF326000E53
:10080800F422000EF324D96E010EF420DA6E020EE3
:10081800DE18D8B420D02250150D030EF326000E92
:10082800F422000EF324D96E010EF420DA6E040EC1
:10083800DE18D8B410D02250150D030EF326000E82
:10084800F422000EF324D96E010EF420DA6E030EA2
:10085800DE18D8A410D022C029F02950150D050E95
:10086800F326000EF422000EF324D96E010EF420B4
:10087800DA6EDF50416E222AAAD72950150D030ED1
:10088800F326000EF422000EF324D96E010EF42094
:10089800DA6E040EDF6E29C03AF02950150D070EE6
:1008A800F326000EF422000EF324D96E010EF42074
:1008B800DA6EDF50FE6E2950150D080EF326000E75
:1008C800F422000EF324D96E010EF420DA6EDF5004
:1008D800FF6E2950150D060EF326000EF422000EA9
:1008E800F324D96E010EF420DA6EDF50FD6E295024
:1008F800150D030EF326000EF422000EF324D96E14
:10090800010EF420DA6E030EDE18D8A42BD029507D
:10091800150D090EF326000EF422000EF324D96EED
:10092800010EF420DA6EDF50D86E2950150D0B0E2B
:10093800F326000EF422000EF324D96E010EF420E3
:10094800DA6EDF50E06E2950150D0A0EF326000E00
:10095800F422000EF324D96E010EF420DA6EDF5073
:100968001A6E1A50F28CF28E1200F29CF29E3A50D5
:10097800150D080EF326000EF422000EF324D96E8E
:10098800010EF420DA6EFFCFDFFF3A50150D070E87
:10099800F326000EF422000EF324D96E010EF42083
:1009A800DA6EFECFDFFF3A50150D060EF326000E65
:1009B800F422000EF324D96E010EF420DA6EFDCF76
:1009C800DFFFCEC032F03250150D040EF326000EB4
:1009D800F422000EF324D96E010EF420DA6ECEC094
:1009E800DFFF3250150D030EF326000EF422000E21
:1009F800F324D96E010EF420DA6E020EDF6E325047
:100A0800150D020EF326000EF422000EF324D96E03
:100A1800010EF420DA6ECCC0DFFF3250150D010E46
:100A2800F326000EF422000EF324D96E010EF420F2
:100A3800DA6ECBC0DFFF3250150D000EF324D96EED
:100A4800010EF420DA6ECAC0DFFF3250150D080E11
:100A5800F326000EF422000EF324D96E010EF420C2
:100A6800DA6ECCC0DFFF3250150D070EF326000EEC
:100A7800F422000EF324D96E010EF420DA6ECBC0F6
:100A8800DFFF3250150D060EF326000EF422000E7D
:100A9800F324D96E010EF420DA6ECAC0DFFF32509B
:100AA800150D050EF326000EF422000EF324D96E60
:100AB800010EF420DA6ECFC0DFFFFC06E1EC03F094
:100AC8001200F29CF29E0550150D040EF326000E3E
:100AD800F422000EF324D96E010EF420DA6E05C05C
:100AE800DFFF0550150D030EF326000EF422000E4D
:100AF800F324D96E010EF420DA6E020EDF6E055073
:100B0800150D020EF326000EF422000EF324D96E02
:100B1800010EF420DA6E03C0DFFF0550150D010E3B
:100B2800F326000EF422000EF324D96E010EF420F1
:100B3800DA6E02C0DFFF0550150D000EF324D96EE2
:100B4800010EF420DA6E01C0DFFF0550150D080E06
:100B5800F326000EF422000EF324D96E010EF420C1
:100B6800DA6E03C0DFFF0550150D070EF326000EE1
:100B7800F422000EF324D96E010EF420DA6E02C0BE
:100B8800DFFF0550150D060EF326000EF422000EA9
:100B9800F324D96E010EF420DA6E01C0DFFF055090
:100BA800150D050EF326000EF422000EF324D96E5F
:100BB800010EF420DA6E06C0DFFFC20EFD6E070ECE
:100BC800FE6E000EFF6E10001200F29CF29E000EE8
:100BD800226E0A0E226401D048D02250150D050E4F
:100BE800F326000EF422000EF324D96E010EF42031
:100BF800DA6EFF0EDF6E2250150D040EF326000E7E
:100C0800F422000EF324D96E010EF420DA6E22C00D
:100C1800DFFF2250150D030EF326000EF422000EFE
:100C2800F324D96E010EF420DA6E000EDF6E225026
:100C3800080D020EF326000EF422600EF324D96E7E
:100C4800000EF420DA6E000EDF6E2250080D060E3C
:100C5800F326000EF422600EF324D96E000EF42061
:100C6800DA6E000EDF6E222AB4D7D39ED38CD38AD5
:100C7800D388D396D384D382D380000ECD6ECD8E05
:100C8800CD9CCD9ACD98CD96CD84CD92FA0ECF6ECF
:100C9800000ECE6E9E909D8012003A50150D0A0EE1
:100CA800F326000EF422000EF324D96E010EF42070
:100CB800DA6E37C0DFFF3A50150D090EF326000E25
:100CC800F422000EF324D96E010EF420DA6E36C039
:100CD800DFFF3A50150D0B0EF326000EF422000E1E
:100CE800F324D96E010EF420DA6E35C0DFFF3A50D6
:100CF800150D030EF326000EF422000EF324D96E10
:100D0800010EF420DA6E030EDF6EFC063A50150D64
:100D1800080EF326000EF422000EF324D96E010EFD
:100D2800F420DA6EFFCFDFFF3A50150D070EF326D9
:100D3800000EF422000EF324D96E010EF420DA6EB0
:100D4800FECFDFFF3A50150D060EF326000EF422F3
:100D5800000EF324D96E010EF420DA6EFDCFDFFF0A
:100D6800FC2A12003A50150D0A0EF326000EF42242
:100D7800000EF324D96E010EF420DA6E37C0DFFFBF
:100D88003A50150D090EF326000EF422000EF32436
:100D9800D96E010EF420DA6E36C0DFFF3A50150D19
:100DA8000B0EF326000EF422000EF324D96E010E6A
:100DB800F420DA6E35C0DFFF3A50150D030EF32626
:100DC800000EF422000EF324D96E010EF420DA6E20
:100DD800030EDF6EFC063A50150D080EF326000EC2
:100DE800F422000EF324D96E010EF420DA6EFFCF40
:100DF800DFFF3A50150D070EF326000EF422000E01
:100E0800F324D96E010EF420DA6EFECFDFFF3A50DC
:100E1800150D060EF326000EF422000EF324D96EEB
:100E2800010EF420DA6EFDCFDFFFFC2A12001B6EE4
:100E3800F29E0A0E2C6E000E266E0A0E266401D053
:100E480024D02650080D020EF326000EF422600E60
:100E5800F324D96E000EF420DA6EDF50D8A413D034
:100E68002650080D060EF326000EF422600EF32419
:100E7800D96E000EF420DA6EDF50D8A404D026C054
:100E88002CF0640E266E262AD8D73A50150D110E6E
:100E9800F326000EF422000EF324D96E010EF4207E
:100EA800DA6E1BC0DFFF2C50080D600EF324D96EDC
:100EB800000EF420DA6E1BC0DFFF2C50080D010E67
:100EC800F326000EF422600EF324D96E000EF420EF
:100ED800DA6E1AC0DFFF2C50080D060EF326000E3E
:100EE800F422600EF324D96E000EF420DA6E010E9F
:100EF800DF6E1200000E226E0A0E226401D04DD061
:100F08002250150D0E0EF326000EF422000EF324C7
:100F1800D96E010EF420DA6EDE04D8A43CD022503B
:100F2800150D0C0EF326000EF422000EF324D96ED4
:100F3800010EF420DA6EDE06000EDD5A2250150D81
:100F48000C0EF326000EF422000EF324D96E010EC7
:100F5800F420DA6EDE50DE10D8A41DD0210622500F
:100F6800150D030EF326000EF422000EF324D96E9D
:100F7800010EF420DA6E020EDF6E2250150D0E0EF1
:100F8800F326000EF422000EF324D96E010EF4208D
:100F9800DA6E000EDF6E222AAFD72150D8A402D015
:100FA8009D90CD80C20EFD6E070EFE6E000EFF6E88
:100FB80010001200F29CF29E3A50150D080EF3260E
:100FC800000EF422000EF324D96E010EF420DA6E1E
:100FD800FFCFDFFF3A50150D070EF326000EF4225F
:100FE800000EF324D96E010EF420DA6EFECFDFFF77
:100FF8003A50150D060EF326000EF422000EF324C7
:10100800D96E010EF420DA6EFDCFDFFF3A50150DD0
:10101800030EF326000EF422000EF324D96E010EFF
:10102800F420DA6E010EDF6E3A50150D0C0EF32621
:10103800000EF422000EF324D96E010EF420DA6EAD
:101048001BC0DEFF1CC0DDFF3A50150D0E0EF32647
:10105800000EF422000EF324D96E010EF420DA6E8D
:10106800010EDF6E212ACD809D80FC06E1EC03F0A5
:1010780012000600E9CFBEF0EACFBFF0E1CFC0F022
:10108800E2CFC1F0D9CFC2F0DACFC3F0F3CFC4F0CA
:10109800F4CFC5F0F6CFC6F0F7CFC7F0F8CFC8F059
:1010A800F5CFC9F0B6EC06F09DB09EA007D09E9093
:1010B800FA0ECF6E000ECE6E7EEC07F0C9C0F5FFBB
:1010C800C8C0F8FFC7C0F7FFC6C0F6FFC5C0F4FF29
:1010D800C4C0F3FFC3C0DAFFC2C0D9FFC1C0E2FF7A
:1010E800C0C0E1FFBFC0EAFFBEC0E9FFBDC0FBFF53
:1010F800BCC0FAFF46921100F29E3A50150D030E3D
:10110800F326000EF422000EF324D96E010EF4200B
:10111800DA6E010EDF6E3A50150D080EF326000E3A
:10112800F422000EF324D96E010EF420DA6EFFCFFC
:10113800DFFF3A50150D070EF326000EF422000EBD
:10114800F324D96E010EF420DA6EFECFDFFF3A5099
:10115800150D060EF326000EF422000EF324D96EA8
:10116800010EF420DA6EFDCFDFFFFC2AC20EFD6E01
:10117800070EFE6E000EFF6E1200010E1A6E000EB4
:101188001BEC07F01DC01BF01EC01CF0010E70EC1C
:1011980000F000F01DC03BF08A863BC01BF01C6AC3
:1011A800DEEC07F08A963B500001D06FD16B00014E
:1011B800D01FD11FD04BD12B640E0001D0251B6E40
:1011C800000E0001D1211C6EDEEC07F0E5D7080EF9
:1011D800386E000E336E000E1C6E010E1B6EDEECB8
:1011E80007F0D890333281B2338E000E1C6E040E95
:1011F8001B6EDEEC07F038063828D8A4F2D7000EAC
:101208001C6E040E1B6EDEEC07F0000E1B6E3350D6
:101218003DEC02F0F090F08658EC09F0120001EE77
:1012280000F0E70EEE6AE806FDE100EE60F05C0E05
:10123800EE6AE806FDE100EE1DF0180EEE6AE8061B
:10124800FDE1020EF66E130EF76E000EF86E00EE5C
:1012580035F010EE11F00900F5CFEEFFE550E15042
:10126800FAE14690469200013AEF09F000F0E9EC05
:1012780005F06CEC09F078EC09F0D08EF28CF09067
:10128800F28E820E0001CA6F110ECB6F000ECC6F6A
:10129800000ECD6F000E0001CE6F010E0001CF6F62
:1012A800B9EC04F000F0FED7F29CF29E3A50150D0E
:1012B800030EF326000EF422000EF324D96E010E5D
:1012C800F420DA6E000EDF6EFC06E1EC03F012008B
:1012D800C180C182C184C186000E8A6E000E936EE1
:1012E8009380938293841200F298F086F088F09CA1
:1012F800F09EF19CF19AF1981200FFFFFF08080A8E
:0C130800010203040506FFFFFFFF0100C7
:020000040020DA
:08000000FFFFFFFFFFFFFFFF00
:020000040030CA
:0E0000001808181EFF8180FF0FC00FE00F4090
:00000001FF
