:040000006EEF00F0AF
:0E0008004682FACFBCF0FBCFBDF045ED08F00C
:100018004680D8CF21F0E8CF22F0E0CF23F0FACF06
:1000280024F0FBCF25F0E9CF26F0EACF27F0E1CF87
:1000380028F0E2CF29F0D9CF2AF0DACF2BF0F3CF8E
:100048002CF0F4CF2DF0F6CF2EF0F7CF2FF0F8CF1D
:1000580030F0F5CF31F058EC06F0F0B6F0A010D043
:10006800F090F096120E1B6E120E1C6E000E1D6E96
:10007800000E1E6E010E1F6E010E206E6CEC05F058
:10008800F0B8F0A203D0F092F09800F031C0F5FF7C
:1000980030C0F8FF2FC0F7FF2EC0F6FF2DC0F4FFC9
:1000A8002CC0F3FF2BC0DAFF2AC0D9FF29C0E2FF1A
:1000B80028C0E1FF27C0EAFF26C0E9FF25C0FBFFF3
:1000C80024C0FAFF23C0E0FF22C0E8FF21C0D8FF08
:1000D8004690100037EF09F00001D16FF29ECAC0B8
:1000E80001F0CBC002F0000E0B6E0A0E0B6401D0BB
:1000F80012000B50080D600EF324D96E000EF42088
:10010800DA6E3A50DE18D8A4B7D10B50080D010E9C
:10011800F326000EF422600EF324D96E000EF420AC
:10012800DA6E0001D151DE18D8A4A6D10BC011F0A7
:10013800640E0B6E3A50180D130EF326000EF422BF
:10014800D40EF324D96E000EF420DA6E11C0DFFF4E
:100158001150080D030EF326000EF422600EF3244E
:10016800D96E000EF420DA6E3A50180D120EF326EE
:10017800000EF422D40EF324E16E000EF420E26E99
:10018800DFCFE7FF1150080D020EF326000EF42210
:10019800600EF324D96E000EF420DA6EDF50D8A476
:1001A8002CD03A50180D100EF326000EF422D40E5F
:1001B800F324D96E000EF420DA6ED1C0DFFF3A5076
:1001C800180D0F0EF326000EF422D40EF324D96E68
:1001D800000EF420DA6E020EDF6E3A50180D030E90
:1001E800F326000EF422D40EF324D96E000EF42068
:1001F800DA6E010EDF6E88EC08F03A50180D130E17
:10020800F326000EF422D40EF324D96E000EF42047
:10021800DA6EDF500001CC6F0001CC51080D020EE0
:10022800F326000EF422600EF324D96E000EF4209B
:10023800DA6E000EDF6E3A50180D130EF326000E1C
:10024800F422D40EF324D96E000EF420DA6EDF50B7
:100258000001CC6F0001CC51080D030EF326000EEF
:10026800F422600EF324D96E000EF420DA6E3A50B0
:10027800180D120EF326000EF422D40EF324E16EAC
:10028800000EF420E26EDFCFE7FF3A50180D130E90
:10029800F326000EF422D40EF324D96E000EF420B7
:1002A800DA6EDF500B6E00F00B50080D030EF326CC
:1002B800000EF422600EF324D96E000EF420DA6EDC
:1002C800DF500001CC6FCCC0CDF00001CE6BCF6BFE
:1002D800D06B01C0D9FF02C0DAFFCDC0DEFFCEC0AF
:1002E800DEFFCFC0DEFFD0C0DEFF0B50080D010ED1
:1002F800F326000EF422600EF324D96E000EF420CB
:10030800DA6EDF500001CC6F0001CC51180D110ED0
:10031800F326000EF422D40EF324D96E000EF42036
:10032800DA6E3A50DE18D8A4A7D00B50080D010E8B
:10033800F326000EF422600EF324D96E000EF4208A
:10034800DA6EDF500001CC6F0001CC51180D030E9E
:10035800F326000EF422D40EF324D96E000EF420F6
:10036800DA6EDE04D8A488D00B50080D010EF326EF
:10037800000EF422600EF324D96E000EF420DA6E1B
:10038800DF500001CC6F0001CC51180D0F0EF32681
:10039800000EF422D40EF324D96E000EF420DA6E87
:1003A800DE04D8A469D00B50080D010EF326000E08
:1003B800F422600EF324D96E000EF420DA6EDF50BA
:1003C8000001CC6F0001CC51180D030EF326000E6E
:1003D800F422D40EF324D96E000EF420DA6E020E45
:1003E800DF6E0B50080D010EF326000EF422600E8E
:1003F800F324D96E000EF420DA6EDF500001CC6FC2
:100408000001CC51180D0F0EF326000EF422D40E65
:10041800F324D96E000EF420DA6E000EDF6E3A5027
:10042800180D080EF326000EF422D40EF324D96E0C
:10043800000EF420DA6EFFCFDFFF3A50180D070EDA
:10044800F326000EF422D40EF324D96E000EF42005
:10045800DA6EFECFDFFF3A50180D060EF326000EB7
:10046800F422D40EF324D96E000EF420DA6EFDCFF8
:10047800DFFFFC06E8EC03F00B2A37D60001CE6F4D
:10048800F29E0A0E126E000E0C6E0A0E0C6401D05B
:100498007AD00C50080D010EF326000EF422600EDF
:1004A800F324D96E000EF420DA6E3A50DE18D8A480
:1004B80068D00C50080D600EF324D96E000EF4209D
:1004C800DA6E0001CA51DE18D8A45BD00CC012F055
:1004D800640E0C6E3A50180D140EF326000EF4221A
:1004E800D40EF324D96E000EF420DA6E12C0DFFFAA
:1004F8003A50180D120EF326000EF422D40EF324EF
:10050800D96E000EF420DA6ECEC0DFFF1250080D4F
:10051800020EF326000EF422600EF324D96E000EAC
:10052800F420DA6EDE04D8A42CD03A50180D110E3F
:10053800F326000EF422D40EF324D96E000EF42014
:10054800DA6ECAC0DFFF3A50180D120EF326000EFD
:10055800F422D40EF324D96E000EF420DA6ECEC045
:10056800DFFF3A50180D0F0EF326000EF422D40EBA
:10057800F324D96E000EF420DA6E010EDF6E88ECDB
:1005880008F00C2A82D73A50180D120EF326000EE6
:10059800F422D40EF324D96E000EF420DA6E3A5009
:1005A800180D140EF326000EF422D40EF324E16E77
:1005B800000EF420E26EE7500001CB6F0001CB5132
:1005C800080D030EF326000EF422600EF324E16EEC
:1005D800000EF420E26EDFCFE7FF3A50180D140E3C
:1005E800F326000EF422D40EF324D96E000EF42064
:1005F800DA6EDF500001CB6F0001CB51080D020EFF
:10060800F326000EF422600EF324D96E000EF420B7
:10061800DA6E010EDF6E3A50180D140EF326000E36
:10062800F422D40EF324D96E000EF420DA6EDF50D3
:100638000001CB6F0001CB51080D600EF324D96E79
:10064800000EF420DA6EDF500001CC6F0001CC51AF
:10065800180D030EF326000EF422D40EF324D96EDF
:10066800000EF420DA6EDE04D8A412003A50180DF9
:10067800140EF326000EF422D40EF324D96E000EC5
:10068800F420DA6EDF500001CB6F0001CB51080D6A
:10069800600EF324D96E000EF420DA6EDF500001EC
:1006A800CC6F0001CC51180D0F0EF326000EF4226A
:1006B800D40EF324D96E000EF420DA6E020EDE1882
:1006C800D8A412003A50180D140EF326000EF42286
:1006D800D40EF324D96E000EF420DA6EDF50000138
:1006E800CB6F0001CB51080D600EF324D96E000EBC
:1006F800F420DA6EDF500001CC6F0001CC51180DE8
:10070800030EF326000EF422D40EF324D96E000E45
:10071800F420DA6E020EDF6E3A50180D140EF3262E
:10072800000EF422D40EF324D96E000EF420DA6EF3
:10073800DF500001CB6F0001CB51080D600EF32490
:10074800D96E000EF420DA6EDF500001CC6F000184
:10075800CC51180D0F0EF326000EF422D40EF324FC
:10076800D96E000EF420DA6E000EDF6E3A50180DC6
:10077800080EF326000EF422D40EF324D96E000ED0
:10078800F420DA6EFFCFDFFF3A50180D070EF3267C
:10079800000EF422D40EF324D96E000EF420DA6E83
:1007A800FECFDFFF3A50180D060EF326000EF42296
:1007B800D40EF324D96E000EF420DA6EFDCFDFFFDD
:1007C800FC06E8EC03F01200F29CF29E0A0E0D6E95
:1007D80041684504D8A41200000E066E0A0E06648D
:1007E80001D052D00650180D050EF326000EF42243
:1007F800D40EF324D96E000EF420DA6E4150DE5C7C
:10080800D8B040D00650180D030EF326000EF4227F
:10081800D40EF324D96E000EF420DA6E020EDE1820
:10082800D8B420D00650180D030EF326000EF4227B
:10083800D40EF324D96E000EF420DA6E040EDE18FE
:10084800D8B410D00650180D030EF326000EF4226B
:10085800D40EF324D96E000EF420DA6E030EDE18DF
:10086800D8A410D006C00DF00D50180D050EF326B3
:10087800000EF422D40EF324D96E000EF420DA6EA2
:10088800DF50416E062AAAD70D50180D030EF32625
:10089800000EF422D40EF324D96E000EF420DA6E82
:1008A800040EDF6E0DC03AF00D50180D070EF3263A
:1008B800000EF422D40EF324D96E000EF420DA6E62
:1008C800DF50FE6E0D50180D080EF326000EF422B0
:1008D800D40EF324D96E000EF420DA6EDF50FF6ECA
:1008E8000D50180D060EF326000EF422D40EF32434
:1008F800D96E000EF420DA6EDF50FD6E0D50180D23
:10090800030EF326000EF422D40EF324D96E000E43
:10091800F420DA6E030EDE18D8A42BD00D50180D73
:10092800090EF326000EF422D40EF324D96E000E1D
:10093800F420DA6EDF50D86E0D50180D0B0EF3262A
:10094800000EF422D40EF324D96E000EF420DA6ED1
:10095800DF50E06E0D50180D0A0EF326000EF4223B
:10096800D40EF324D96E000EF420DA6EDF50346E04
:100978003450F28CF28E1200F29CF29E3A50180D0E
:10098800080EF326000EF422D40EF324D96E000EBE
:10099800F420DA6EFFCFDFFF3A50180D070EF3266A
:1009A800000EF422D40EF324D96E000EF420DA6E71
:1009B800FECFDFFF3A50180D060EF326000EF42284
:1009C800D40EF324D96E000EF420DA6EFDCFDFFFCB
:1009D800CEC016F01650180D040EF326000EF422A1
:1009E800D40EF324D96E000EF420DA6ECEC0DFFFE9
:1009F8001650180D030EF326000EF422D40EF3241D
:100A0800D96E000EF420DA6E020EDF6E1650180D45
:100A1800020EF326000EF422D40EF324D96E000E33
:100A2800F420DA6ECCC0DFFF1650180D010EF32645
:100A3800000EF422D40EF324D96E000EF420DA6EE0
:100A4800CBC0DFFF1650180DD40EF324D96E000E5C
:100A5800F420DA6ECAC0DFFF1650180D080EF32610
:100A6800000EF422D40EF324D96E000EF420DA6EB0
:100A7800CCC0DFFF1650180D070EF326000EF42227
:100A8800D40EF324D96E000EF420DA6ECBC0DFFF4B
:100A98001650180D060EF326000EF422D40EF32479
:100AA800D96E000EF420DA6ECAC0DFFF1650180D9A
:100AB800050EF326000EF422D40EF324D96E000E90
:100AC800F420DA6ECFC0DFFFFC06E8EC03F012007A
:100AD800F29CF29E1F50180D040EF326000EF4220D
:100AE800D40EF324D96E000EF420DA6E1FC0DFFF97
:100AF8001F50180D030EF326000EF422D40EF32413
:100B0800D96E000EF420DA6E020EDF6E1F50180D3B
:100B1800020EF326000EF422D40EF324D96E000E32
:100B2800F420DA6E1DC0DFFF1F50180D010EF326EA
:100B3800000EF422D40EF324D96E000EF420DA6EDF
:100B48001CC0DFFF1F50180DD40EF324D96E000E01
:100B5800F420DA6E1BC0DFFF1F50180D080EF326B5
:100B6800000EF422D40EF324D96E000EF420DA6EAF
:100B78001DC0DFFF1F50180D070EF326000EF422CC
:100B8800D40EF324D96E000EF420DA6E1CC0DFFFF9
:100B98001F50180D060EF326000EF422D40EF3246F
:100BA800D96E000EF420DA6E1BC0DFFF1F50180D3F
:100BB800050EF326000EF422D40EF324D96E000E8F
:100BC800F420DA6E20C0DFFFD00EFD6E070EFE6E39
:100BD800000EFF6E10001200F29CF29E000E066ED0
:100BE8000A0E066401D048D00650180D050EF326EB
:100BF800000EF422D40EF324D96E000EF420DA6E1F
:100C0800FF0EDF6E0650180D040EF326000EF422B8
:100C1800D40EF324D96E000EF420DA6E06C0DFFF7E
:100C28000650180D030EF326000EF422D40EF324FA
:100C3800D96E000EF420DA6E000EDF6E0650080D35
:100C4800020EF326000EF422600EF324D96E000E75
:100C5800F420DA6E000EDF6E0650080D060EF3263D
:100C6800000EF422600EF324D96E000EF420DA6E22
:100C7800000EDF6E062AB4D7D39ED38CD38AD388CE
:100C8800D396D384D382D380000ECD6ECD8ECD9CE7
:100C9800CD9ACD98CD96CD84CD92FA0ECF6E000E1A
:100CA800CE6E9E909D8012003A50180D0A0EF326C3
:100CB800000EF422D40EF324D96E000EF420DA6E5E
:100CC80037C0DFFF3A50180D090EF326000EF42244
:100CD800D40EF324D96E000EF420DA6E36C0DFFF8E
:100CE8003A50180D0B0EF326000EF422D40EF324FE
:100CF800D96E000EF420DA6E35C0DFFF3A50180DB9
:100D0800030EF326000EF422D40EF324D96E000E3F
:100D1800F420DA6E030EDF6EFC063A50180D080E4A
:100D2800F326000EF422D40EF324D96E000EF4201C
:100D3800DA6EFFCFDFFF3A50180D070EF326000ECC
:100D4800F422D40EF324D96E000EF420DA6EFECF0E
:100D5800DFFF3A50180D060EF326000EF422D40ECB
:100D6800F324D96E000EF420DA6EFDCFDFFFFC2AE3
:100D780012003A50180D0A0EF326000EF422D40E73
:100D8800F324D96E000EF420DA6E37C0DFFF3A5034
:100D9800180D090EF326000EF422D40EF324D96E92
:100DA800000EF420DA6E36C0DFFF3A50180D0B0E35
:100DB800F326000EF422D40EF324D96E000EF4208C
:100DC800DA6E35C0DFFF3A50180D030EF326000E19
:100DD800F422D40EF324D96E000EF420DA6E030E3A
:100DE800DF6EFC063A50180D080EF326000EF422AA
:100DF800D40EF324D96E000EF420DA6EFFCFDFFF95
:100E08003A50180D070EF326000EF422D40EF324E0
:100E1800D96E000EF420DA6EFECFDFFF3A50180DBF
:100E2800060EF326000EF422D40EF324D96E000E1B
:100E3800F420DA6EFDCFDFFFFC2A12000001CA6F32
:100E4800F29E0A0E106E000E0A6E0A0E0A6401D097
:100E580024D00A50080D020EF326000EF422600E6C
:100E6800F324D96E000EF420DA6EDF50D8A413D024
:100E78000A50080D060EF326000EF422600EF32425
:100E8800D96E000EF420DA6EDF50D8A404D00AC060
:100E980010F0640E0A6E0A2AD8D73A50180D110EAF
:100EA800F326000EF422D40EF324D96E000EF4209B
:100EB800DA6ECAC0DFFF1050080D600EF324D96E39
:100EC800000EF420DA6ECAC0DFFF1050080D010EC4
:100ED800F326000EF422600EF324D96E000EF420DF
:100EE800DA6E34C0DFFF1050080D060EF326000E30
:100EF800F422600EF324D96E000EF420DA6E010E8F
:100F0800DF6E1200000E066E0A0E066401D04DD088
:100F18000650180D0E0EF326000EF422D40EF324FC
:100F2800D96E000EF420DA6EDE04D8A43CD0065048
:100F3800180D0C0EF326000EF422D40EF324D96EED
:100F4800000EF420DA6EDE06000EDD5A0650180D8B
:100F58000C0EF326000EF422D40EF324D96E000EE4
:100F6800F420DA6EDE50DE10D8A41DD00506065037
:100F7800180D030EF326000EF422D40EF324D96EB6
:100F8800000EF420DA6E020EDF6E0650180D0E0EFB
:100F9800F326000EF422D40EF324D96E000EF420AA
:100FA800DA6E000EDF6E062AAFD70550D8A402D03D
:100FB8009D90CD80D00EFD6E070EFE6E000EFF6E6A
:100FC80010001200F29CF29E3A50180D080EF326FB
:100FD800000EF422D40EF324D96E000EF420DA6E3B
:100FE800FFCFDFFF3A50180D070EF326000EF4224C
:100FF800D40EF324D96E000EF420DA6EFECFDFFF94
:101008003A50180D060EF326000EF422D40EF324DF
:10101800D96E000EF420DA6EFDCFDFFF3A50180DBE
:10102800030EF326000EF422D40EF324D96E000E1C
:10103800F420DA6E010EDF6E3A50180D0C0EF3260E
:10104800000EF422D40EF324D96E000EF420DA6ECA
:10105800CAC0DEFFCBC0DDFF3A50180D0E0EF326D6
:10106800000EF422D40EF324D96E000EF420DA6EAA
:10107800010EDF6E052ACD809D80FC06E8EC03F0AA
:1010880012000600E9CFBEF0EACFBFF0E1CFC0F012
:10109800E2CFC1F0D9CFC2F0DACFC3F0F3CFC4F0BA
:1010A800F4CFC5F0F6CFC6F0F7CFC7F0F8CFC8F049
:1010B800F5CFC9F0BDEC06F09DB09EA007D09E907C
:1010C800FA0ECF6E000ECE6E86EC07F0C9C0F5FFA3
:1010D800C8C0F8FFC7C0F7FFC6C0F6FFC5C0F4FF19
:1010E800C4C0F3FFC3C0DAFFC2C0D9FFC1C0E2FF6A
:1010F800C0C0E1FFBFC0EAFFBEC0E9FFBDC0FBFF43
:10110800BCC0FAFF46921100F29E3A50180D030E29
:10111800F326000EF422D40EF324D96E000EF42028
:10112800DA6E010EDF6E3A50180D080EF326000E27
:10113800F422D40EF324D96E000EF420DA6EFFCF19
:10114800DFFF3A50180D070EF326000EF422D40ED6
:10115800F324D96E000EF420DA6EFECFDFFF3A508A
:10116800180D060EF326000EF422D40EF324D96EC1
:10117800000EF420DA6EFDCFDFFFFC2AD00EFD6EE4
:10118800070EFE6E000EFF6E1200010E346E000E8A
:1011980022EC07F0190E0001CA6F000E0001CB6F98
:1011A800010E70EC00F000F019C03BF0000E94EC5A
:1011B80009F00009D8B40BD0190E0001CA6F000E4F
:1011C8000001CB6F010E70EC00F019C03BF08A866D
:1011D8003BC0CAF00001CB6BE6EC07F08A963B50A7
:1011E8000001D26FD36B0001D21FD31FD24BD32B78
:1011F800640E0001D2250001CA6F000E0001D32140
:101208000001CB6FE6EC07F0D1D7080E386E000E60
:10121800176E000E0001CB6F010ECA6FE6EC07F0E7
:10122800D890173281B2178E000E0001CB6F040ED2
:10123800CA6FE6EC07F038063828D8A4F1D7000EB4
:101248000001CB6F040ECA6FE6EC07F0000E000138
:10125800CA6F175042EC02F0000E176EF090F0863D
:1012680080EC09F0120000EED4F011EE08F0EE6AFE
:10127800E550E150FCE1E250FAE100EE60F05C0E6E
:10128800EE6AE806FDE100EE01F01A0EEE6AE806E5
:10129800FDE1700EF66E130EF76E000EF86E00EE9E
:1012A80035F010EE11F00900F5CFEEFFE550E150F2
:1012B800FAE146904692000162EF09F000F0F0EC86
:1012C80005F0A3EC09F0AFEC09F0D08EF28CF090A9
:1012D800F28E920E0001CA6F110ECB6F000ECC6F0A
:1012E800000ECD6F000E0001CE6F010E0001CF6F12
:1012F800C0EC04F000F0FED7F29CF29E3A50180DB4
:10130800030EF326000EF422D40EF324D96E000E39
:10131800F420DA6E000EDF6EFC06E8EC03F0120033
:10132800346E3450080D020EF326000EF422600EBF
:10133800F324D96E000EF420DA6EDF501200C1805B
:10134800C182C184C186000E8A6E000E936E93809E
:10135800938293841200F298F086F088F09CF09EB5
:10136800F19CF19AF1981200FFFFFF08080A0102A8
:0A13780003040506FFFFFFFF01005C
:020000040020DA
:08000000FFFFFFFFFFFFFFFF00
:020000040030CA
:0E0000001808181EFF8180FF0FC00FE00F4090
:00000001FF
