:040000006DEF00F0B0
:0E0008004482FACFBEF0FBCFBFF0B2ED08F09D
:100018004480D8CF24F0E8CF25F0E0CF26F0FACFFF
:1000280027F0FBCF28F0E9CF29F0EACF2AF0E1CF7B
:100038002BF0E2CF2CF0D9CF2DF0DACF2EF0F3CF82
:100048002FF0F4CF30F0F6CF31F0F7CF32F0F8CF11
:1000580033F0F5CF34F048EC09F07CEC09F0EFEC24
:1000680009F0D4EC09F0A6EC0AF0C3EC0AF07CEC39
:100078000AF065EC0AF04EEC0AF037EC0AF020ECD6
:100088000AF009EC0AF0B0EC07F034C0F5FF33C011
:10009800F8FF32C0F7FF31C0F6FF30C0F4FF2FC0C1
:1000A800F3FF2EC0DAFF2DC0D9FF2CC0E2FF2BC012
:1000B800E1FF2AC0EAFF29C0E9FF28C0FBFF27C0EB
:1000C800FAFF26C0E0FF25C0E8FF24C0D8FF44900F
:1000D8001000ADEF09F0236EF29E000E0F6E0A0EAF
:1000E8000F6401D012000F50080D600EF324D96E72
:1000F800000EF420DA6E3850DE18D8A4A5D10F50BF
:10010800080D010EF326000EF422600EF324D96EBA
:10011800000EF420DA6E2350DE18D8A495D10FC053
:1001280015F0640E0F6E3850150D130EF326000EE1
:10013800F422000EF324D96E010EF420DA6E15C0F5
:10014800DFFF1550080D030EF326000EF422600E93
:10015800F324D96E000EF420DA6E3850150D120E05
:10016800F326000EF422000EF324E16E010EF420B3
:10017800E26EDFCFE7FF1550080D020EF326000EE2
:10018800F422600EF324D96E000EF420DA6EDF50EC
:10019800D8A42CD03850150D100EF326000EF422DA
:1001A800000EF324D96E010EF420DA6E23C0DFFFAF
:1001B8003850150D0F0EF326000EF422000EF3240E
:1001C800D96E010EF420DA6E020EDF6E3850150D6E
:1001D800030EF326000EF422000EF324D96E010E4E
:1001E800F420DA6E010EDF6E07EC09F03850150DB9
:1001F800130EF326000EF422000EF324D96E010E1E
:10020800F420DA6EDF501E6E1E50080D020EF32623
:10021800000EF422600EF324D96E000EF420DA6E7C
:10022800000EDF6E3850150D120EF326000EF42264
:10023800000EF324D96E010EF420DA6E3850150D35
:10024800130EF326000EF422000EF324E16E010EC5
:10025800F420E26EE7501E6E1E50080D030EF326C2
:10026800000EF422600EF324E16E000EF420E26E1C
:10027800DFCFE7FF3850150D130EF326000EF422DA
:10028800000EF324D96E010EF420DA6EDF500F6EE3
:100298000F50080D030EF326000EF422600EF3240F
:1002A800D96E000EF420DA6EDF501E6E1EC01FF0ED
:1002B800206A216A226A1CC0D9FF1DC0DAFF1FC04C
:1002C800DEFF20C0DEFF21C0DEFF22C0DEFF0F50B0
:1002D800080D010EF326000EF422600EF324D96EE9
:1002E800000EF420DA6EDF501E6E1E50150D110E32
:1002F800F326000EF422000EF324D96E010EF4202A
:10030800DA6E3850DE18D8A49FD00F50080D010EB1
:10031800F326000EF422600EF324D96E000EF420AA
:10032800DA6EDF501E6E1E50150D030EF326000EFA
:10033800F422000EF324D96E010EF420DA6EDE04E6
:10034800D8A482D00F50080D010EF326000EF42217
:10035800600EF324D96E000EF420DA6EDF501E6EA4
:100368001E50150D0F0EF326000EF422000EF32476
:10037800D96E010EF420DA6EDE04D8A465D00F50D1
:10038800080D010EF326000EF422600EF324D96E38
:10039800000EF420DA6EDF501E6E1E50150D030E8F
:1003A800F326000EF422000EF324D96E010EF42079
:1003B800DA6E020EDF6E0F50080D010EF326000EE6
:1003C800F422600EF324D96E000EF420DA6EDF50AA
:1003D8001E6E1E50150D0F0EF326000EF422000E91
:1003E800F324D96E010EF420DA6E000EDF6E385059
:1003F800150D080EF326000EF422000EF324D96E14
:10040800010EF420DA6EFFCFDFFF3850150D070E0E
:10041800F326000EF422000EF324D96E010EF42008
:10042800DA6EFECFDFFF3850150D060EF326000EEC
:10043800F422000EF324D96E010EF420DA6EFDCFFB
:10044800DFFFFC06BAEC03F00F2A49D6206EF29EB5
:100458000A0E166E000E106E0A0E106401D079D0C6
:100468001050080D010EF326000EF422600EF3243E
:10047800D96E000EF420DA6E3850DE18D8A467D092
:100488001050080D600EF324D96E000EF420DA6EB9
:100498001C50DE18D8A45BD010C016F0640E106E85
:1004A8003850150D140EF326000EF422000EF32416
:1004B800D96E010EF420DA6E16C0DFFF3850150D24
:1004C800120EF326000EF422000EF324D96E010E4C
:1004D800F420DA6E20C0DFFF1650080D020EF32656
:1004E800000EF422600EF324D96E000EF420DA6EAA
:1004F800DE04D8A42CD03850150D110EF326000EAA
:10050800F422000EF324D96E010EF420DA6E1CC01A
:10051800DFFF3850150D120EF326000EF422000EE0
:10052800F324D96E010EF420DA6E20C0DFFF3850B4
:10053800150D0F0EF326000EF422000EF324D96ECB
:10054800010EF420DA6E010EDF6E07EC09F0102AB6
:1005580083D73850150D120EF326000EF422000E24
:10056800F324D96E010EF420DA6E3850150D140EEE
:10057800F326000EF422000EF324E16E010EF4209F
:10058800E26EE7501D6E1D50080D030EF326000E97
:10059800F422600EF324E16E000EF420E26EDFCF49
:1005A800E7FF3850150D140EF326000EF422000E46
:1005B800F324D96E010EF420DA6EDF501D6E1D5043
:1005C800080D020EF326000EF422600EF324D96EF5
:1005D800000EF420DA6E010EDF6E3850150D140E81
:1005E800F326000EF422000EF324D96E010EF42037
:1005F800DA6EDF501D6E1D50080D600EF324D96EA3
:10060800000EF420DA6EDF501E6E1E50150D030E1C
:10061800F326000EF422000EF324D96E010EF42006
:10062800DA6EDE04D8A412003850150D140EF32625
:10063800000EF422000EF324D96E010EF420DA6EB7
:10064800DF501D6E1D50080D600EF324D96E000E8C
:10065800F420DA6EDF501E6E1E50150D0F0EF326B5
:10066800000EF422000EF324D96E010EF420DA6E87
:10067800020EDE18D8A412003850150D140EF326F9
:10068800000EF422000EF324D96E010EF420DA6E67
:10069800DF501D6E1D50080D600EF324D96E000E3C
:1006A800F420DA6EDF501E6E1E50150D030EF32671
:1006B800000EF422000EF324D96E010EF420DA6E37
:1006C800020EDF6E3850150D140EF326000EF422BC
:1006D800000EF324D96E010EF420DA6EDF501D6E81
:1006E8001D50080D600EF324D96E000EF420DA6E4A
:1006F800DF501E6E1E50150D0F0EF326000EF4224D
:10070800000EF324D96E010EF420DA6E000EDF6EAF
:100718003850150D080EF326000EF422000EF324AF
:10072800D96E010EF420DA6EFFCFDFFF3850150DB9
:10073800070EF326000EF422000EF324D96E010EE4
:10074800F420DA6EFECFDFFF3850150D060EF326C3
:10075800000EF422000EF324D96E010EF420DA6E96
:10076800FDCFDFFFFC06BAEC03F01200F29E0A0E82
:10077800116E3F684304D8A41200000E0A6E0A0ED8
:100788000A6401D052D00A50150D050EF326000E4A
:10079800F422000EF324D96E010EF420DA6E3F50D5
:1007A800DE5CD8B040D00A50150D030EF326000EBB
:1007B800F422000EF324D96E010EF420DA6E020E34
:1007C800DE18D8B420D00A50150D030EF326000EFB
:1007D800F422000EF324D96E010EF420DA6E040E12
:1007E800DE18D8B410D00A50150D030EF326000EEB
:1007F800F422000EF324D96E010EF420DA6E030EF3
:10080800DE18D8A410D00AC011F01150150D050E2D
:10081800F326000EF422000EF324D96E010EF42004
:10082800DA6EDF503F6E0A2AAAD71150150D030E53
:10083800F326000EF422000EF324D96E010EF420E4
:10084800DA6E040EDF6E11C038F01150150D070E68
:10085800F326000EF422000EF324D96E010EF420C4
:10086800DA6EDF50FE6E1150150D080EF326000EDD
:10087800F422000EF324D96E010EF420DA6EDF5054
:10088800FF6E1150150D060EF326000EF422000E11
:10089800F324D96E010EF420DA6EDF50FD6EF28E6D
:1008A8001150150D030EF326000EF422000EF3244A
:1008B800D96E010EF420DA6E030EDE18D8A41200E9
:1008C8001150150D090EF326000EF422000EF32424
:1008D800D96E010EF420DA6EDF50D86E1150150D66
:1008E8000B0EF326000EF422000EF324D96E010E2F
:1008F800F420DA6EDF50E06E1150150D0A0EF32663
:10090800000EF422000EF324D96E010EF420DA6EE4
:10091800DF501B6E1B501200F29E3850150D080E4A
:10092800F326000EF422000EF324D96E010EF420F3
:10093800DA6EFFCFDFFF3850150D070EF326000ED5
:10094800F422000EF324D96E010EF420DA6EFECFE5
:10095800DFFF3850150D060EF326000EF422000EA8
:10096800F324D96E010EF420DA6EFDCFDFFF20C02C
:100978001AF01A50150D040EF326000EF422000E7C
:10098800F324D96E010EF420DA6E20C0DFFF1A506E
:10099800150D030EF326000EF422000EF324D96E73
:1009A800010EF420DA6E020EDF6E1A50150D020EDB
:1009B800F326000EF422000EF324D96E010EF42063
:1009C800DA6E1EC0DFFF1A50150D010EF326000E59
:1009D800F422000EF324D96E010EF420DA6E1DC045
:1009E800DFFF1A50150D000EF324D96E010EF42006
:1009F800DA6E1CC0DFFF1A50150D080EF326000E24
:100A0800F422000EF324D96E010EF420DA6E1EC013
:100A1800DFFF1A50150D070EF326000EF422000E04
:100A2800F324D96E010EF420DA6E1DC0DFFF1A50D0
:100A3800150D060EF326000EF422000EF324D96ECF
:100A4800010EF420DA6E1CC0DFFF1A50150D050EDA
:100A5800F326000EF422000EF324D96E010EF420C2
:100A6800DA6E21C0DFFFFC06BAEC03F01200F29E3A
:100A78000001BC51150D040EF326000EF422000EE1
:100A8800F324D96E010EF420DA6EBCC0DFFF00013A
:100A9800BC51150D030EF326000EF422000EF324AC
:100AA800D96E010EF420DA6E020EDF6E0001BC5121
:100AB800150D020EF326000EF422000EF324D96E53
:100AC800010EF420DA6EBAC0DFFF0001BC51150D2B
:100AD800010EF326000EF422000EF324D96E010E47
:100AE800F420DA6EB9C0DFFF0001BC51150D000E0D
:100AF800F324D96E010EF420DA6EB8C0DFFF0001CE
:100B0800BC51150D080EF326000EF422000EF32436
:100B1800D96E010EF420DA6EBAC0DFFF0001BC51B5
:100B2800150D070EF326000EF422000EF324D96EDD
:100B3800010EF420DA6EB9C0DFFF0001BC51150DBB
:100B4800060EF326000EF422000EF324D96E010ED1
:100B5800F420DA6EB8C0DFFF0001BC51150D050E98
:100B6800F326000EF422000EF324D96E010EF420B1
:100B7800DA6EBDC0DFFF740EFD6E070EFE6E000E4E
:100B8800FF6E1000120000F0366FD8CF35F0E0CFBE
:100B980034F03850150D0A0EF326000EF422000E1C
:100BA800F324D96E010EF420DA6E37C0DFFF385017
:100BB800150D090EF326000EF422000EF324D96E4B
:100BC800010EF420DA6E36C0DFFF3850150D0B0E1B
:100BD800F326000EF422000EF324D96E010EF42041
:100BE800DA6E35C0DFFF3850150D030EF326000E00
:100BF800F422000EF324D96E010EF420DA6E030EEF
:100C0800DF6EFC063850150D080EF326000EF42290
:100C1800000EF324D96E010EF420DA6EFFCFDFFF49
:100C28003850150D070EF326000EF422000EF3249B
:100C3800D96E010EF420DA6EFECFDFFF3850150DA5
:100C4800060EF326000EF422000EF324D96E010ED0
:100C5800F420DA6EFDCFDFFFFC2A12001C6EF29E34
:100C68000A0E146E000E0E6E0A0E0E6401D024D009
:100C78000E50080D020EF326000EF422600EF32427
:100C8800D96E000EF420DA6EDF50D8A413D00E50BF
:100C9800080D060EF326000EF422600EF324D96E1A
:100CA800000EF420DA6EDF50D8A404D00EC014F081
:100CB800640E0E6E0E2AD8D73850150D110EF32675
:100CC800000EF422000EF324D96E010EF420DA6E21
:100CD8001CC0DFFF1450080D600EF324D96E000EFF
:100CE800F420DA6E1CC0DFFF1450080D010EF32645
:100CF800000EF422600EF324D96E000EF420DA6E92
:100D08001BC0DFFF1450080D060EF326000EF42258
:100D1800600EF324D96E000EF420DA6E010EDF6E39
:100D28001200F29E000E0A6E0A0E0A6401D048D024
:100D38000A50150D050EF326000EF422000EF324BA
:100D4800D96E010EF420DA6EFF0EDF6E0A50150D13
:100D5800040EF326000EF422000EF324D96E010EC1
:100D6800F420DA6E0AC0DFFF0A50150D030EF326D1
:100D7800000EF422000EF324D96E010EF420DA6E70
:100D8800000EDF6E0A50080D020EF326000EF42244
:100D9800600EF324D96E000EF420DA6E000EDF6EBA
:100DA8000A50080D060EF326000EF422600EF324F6
:100DB800D96E000EF420DA6E000EDF6E0A2AB4D760
:100DC800D350700ED312D58ED58CD59AD598D5968A
:100DD800070ED512D580D582D584F28AF28CD58EAD
:100DE8001200000E0A6E0A0E0A6401D04DD00A5095
:100DF800150D0E0EF326000EF422000EF324D96E04
:100E0800010EF420DA6EDE04D8A43CD00A50150D89
:100E18000C0EF326000EF422000EF324D96E010EF8
:100E2800F420DA6EDE06000EDD5A0A50150D0C0E9F
:100E3800F326000EF422000EF324D96E010EF420DE
:100E4800DA6EDE50DE10D8A41DD009060A50150D42
:100E5800030EF326000EF422000EF324D96E010EC1
:100E6800F420DA6E020EDF6E0A50150D0E0EF32610
:100E7800000EF422000EF324D96E010EF420DA6E6F
:100E8800000EDF6E0A2AAFD70950D8B4F29A740E52
:100E9800FD6E070EFE6E000EFF6E10001200F29E31
:100EA8003850150D080EF326000EF422000EF32418
:100EB800D96E010EF420DA6EFFCFDFFF3850150D22
:100EC800070EF326000EF422000EF324D96E010E4D
:100ED800F420DA6EFECFDFFF3850150D060EF3262C
:100EE800000EF422000EF324D96E010EF420DA6EFF
:100EF800FDCFDFFF3850150D030EF326000EF42248
:100F0800000EF324D96E010EF420DA6E010EDF6EA6
:100F18003850150D0C0EF326000EF422000EF324A3
:100F2800D96E010EF420DA6E1CC0DEFF1DC0DDFF95
:100F38003850150D0E0EF326000EF422000EF32481
:100F4800D96E010EF420DA6E010EDF6E092AF28ADC
:100F5800FC06BAEC03F01200F80E1C6E140E1D6E9F
:100F6800000E1E6E000E1F6E010E206E050E216E05
:100F780090EC04F0CA0E1C6E140E1D6E000E1E6E50
:100F8800000E1F6E020E206E050E216E90EC04F00E
:100F98009C0E1C6E140E1D6E000E1E6E000E1F6E33
:100FA800030E206E050E216E90EC04F06E0E1C6E82
:100FB800140E1D6E000E1E6E000E1F6E040E206EA7
:100FC800050E216E90EC04F0400E1C6E140E1D6E82
:100FD800000E1E6E000E1F6E050E206E050E216E91
:100FE80090EC04F0120E1C6E140E1D6E000E1E6E98
:100FF800000E1F6E060E206E050E216E90EC04F09A
:1010080000F093EC0AF012001C6EF29E0A0E136EAA
:10101800000E0D6E0A0E0D6401D01FD00D50080D84
:10102800600EF324D96E000EF420DA6E1C50DE1820
:10103800D8A411D00D50080D010EF326000EF4228D
:10104800600EF324D96E000EF420DA6E3850DE18E4
:10105800D8B40DC013F00D2ADDD71350080D040EB7
:10106800F326000EF422600EF324D96E000EF4204D
:10107800DA6E010EDF6E1350080D050EF326000E12
:10108800F422600EF324D96E000EF420DA6EDE042A
:10109800D8A412001350080D060EF326000EF422F1
:1010A800600EF324D96E000EF420DA6E000EDF6EA7
:1010B80012001C6EF29E0A0E126E000E0C6E0A0EC4
:1010C8000C6401D01FD00C50080D010EF326000E41
:1010D800F422600EF324D96E000EF420DA6E1C5050
:1010E800DE18D8A40DD00C50080D600EF324D96E6C
:1010F800000EF420DA6E3850DE18D8B40CC012F0A6
:101108000C2ADDD71250080D050EF326000EF42226
:10111800600EF324D96E000EF420DA6E010EDF6E35
:101128001250080D040EF326000EF422600EF3246C
:10113800D96E000EF420DA6EDE04D8A41200125024
:10114800080D060EF326000EF422600EF324D96E65
:10115800000EF420DA6E000EDF6E12000600E9CFF2
:10116800C0F0EACFC1F0E1CFC2F0E2CFC3F0D9CFEF
:10117800C4F0DACFC5F0F3CFC6F0F4CFC7F0F6CF9E
:10118800C8F0F7CFC9F0F8CFCAF0F5CFCBF0C7EC6D
:1011980005F0F2B8F2A213D0F29200F0900E00011E
:1011A800B86F120EB96F000EBA6F000EBB6F000E4B
:1011B8000001BC6F010E0001BD6F3BEC05F0F2BAF7
:1011C800F2A403D0F294F5EC06F0CBC0F5FFCAC048
:1011D800F8FFC9C0F7FFC8C0F6FFC7C0F4FFC6C014
:1011E800F3FFC5C0DAFFC4C0D9FFC3C0E2FFC2C065
:1011F800E1FFC1C0EAFFC0C0E9FFBFC0FBFFBEC03E
:10120800FAFF44921100F29E3850150D030EF32692
:10121800000EF422000EF324D96E010EF420DA6ECB
:10122800010EDF6E3850150D080EF326000EF4225D
:10123800000EF324D96E010EF420DA6EFFCFDFFF23
:101248003850150D070EF326000EF422000EF32475
:10125800D96E010EF420DA6EFECFDFFF3850150D7F
:10126800060EF326000EF422000EF324D96E010EAA
:10127800F420DA6EFDCFDFFFFC2A740EFD6E070E38
:10128800FE6E000EFF6E120000F000F000F0F80E87
:101298001C6E120E1D6E000E1E6E000E1F6E010ECD
:1012A800206E0A0E216E90EC04F0000E1B6E010EEB
:1012B80032EC06F0010E1C6E010E2AEC02F0010E53
:1012C8001C6E020E2AEC02F005C0D9FF06C0DAFF38
:1012D800DECF01F0DECF02F0DECF03F0DECF04F088
:1012E800010E5DEC08F000F000F093EC0AF012003B
:1012F80000F000F005C01CF006C01DF0000E6FECF9
:1013080000F005C0D9FF06C0DAFFDECF01F0DECF5E
:1013180002F0DECF03F0DECF04F000F000F007C0EB
:101328001CF008C01DF0000E6FEC00F007C0D9FFDC
:1013380008C0DAFFDECF01F0DECF02F0DECF03F027
:10134800DECF04F000F0000E08EC08F093EC0AF091
:10135800120001EE00F0E70EEE6AE806FDE100EE8D
:1013680060F0580EEE6AE806FDE100EE01F01A0E94
:10137800EE6AE806FDE1680EF66E150EF76E000ED1
:10138800F86E00EE35F010EE0FF00900F5CFEEFF25
:10139800E550E150FAE1449044920001BCEF0AF0B4
:1013A80000F000F000F04C0E1C6E150E1D6E000EC5
:1013B8001E6E000E1F6E040E206E000E216E90EC45
:1013C80004F0000E1D6E010E1C6E53EC07F000F0C9
:1013D80093EC0AF0120000F000F005C01CF006C003
:1013E8001DF0000E6FEC00F005C0D9FF06C0DAFF53
:1013F800DECF01F0DECF02F0DECF03F0DECF04F067
:1014080000F000F093EC0AF012008A8A3EC01CF04B
:101418001D6A53EC07F08A9A3E501E6E1F6A1E1E04
:101428001F1E1E4A1F2A0A0E1E241C6E000E1F2095
:101438001D6E53EC07F0E9D78A883DC01CF01D6A81
:1014480053EC07F08A983D501E6E1F6A1E1E1F1E21
:101458001E4A1F2A0A0E1E241C6E000E1F201D6E17
:1014680053EC07F0E9D78A863CC01CF01D6A53ECA0
:1014780007F08A963C501E6E1F6A1E1E1F1E1E4ACB
:101488001F2A0A0E1E241C6E000E1F201D6E53EC10
:1014980007F0E9D78A843BC01CF01D6A53EC07F0BB
:1014A8008A943B501E6E1F6A1E1E1F1E1E4A1F2A4C
:1014B8000A0E1E241C6E000E1F201D6E53EC07F032
:1014C800E9D78A823AC01CF01D6A53EC07F08A9269
:1014D8003A501E6E1F6A1E1E1F1E1E4A1F2A0A0E23
:1014E8001E241C6E000E1F201D6E53EC07F0E9D75A
:1014F8008A8039C01CF01D6A53EC07F08A90395075
:101508001E6E1F6A1E1E1F1E1E4A1F2A0A0E1E243A
:101518001C6E000E1F201D6E53EC07F0E9D7F29EDB
:101528003850150D030EF326000EF422000EF32496
:10153800D96E010EF420DA6E000EDF6EFC06BAECEE
:1015480003F0120000F000F000F000F0000E1D6E35
:10155800050E1C6E53EC07F000F093EC0AF0120035
:10156800FFFFFF0A010203040506FFFFFFFF01005A
:1015780095EC06F0F28E120EF21200F0FED7000E75
:081588008A6E000E936E120042
:020000040020DA
:08000000FFFFFFFFFFFFFFFF00
:020000040030CA
:0E0000001808181EFF8180FF0000000000009D
:00000001FF
